:100000000C942A000C9478030C943F000C943F004D
:100010000C943F000C943F000C943F000C943F0064
:100020000C943F000C943F000C943F000C943F0054
:100030000C943F000C943F000C943F000C943F0044
:100040000C943F000C943F000C943F000C943F0034
:100050000C943F0011241FBECFE5D8E0DEBFCDBF1A
:1000600010E0A0E6B0E0E4EFF8E002C005900D92E9
:10007000A237B107D9F70E94A8030C9478040C9416
:100080000000813001F130F08230B1F1833009F4A9
:100090004CC0089541110CC02AB381E090E002C029
:1000A000880F991F6A95E2F7809582238ABB08958D
:1000B0002AB381E090E002C0880F991F6A95E2F7A9
:1000C000822B8ABB089541110CC027B381E090E0D8
:1000D00002C0880F991F6A95E2F78095822387BB3B
:1000E000089527B381E090E002C0880F991F6A95B8
:1000F000E2F7822B87BB089541110CC024B381E045
:1001000090E002C0880F991F6A95E2F780958223DC
:1001100084BB089524B381E090E002C0880F991F4A
:100120006A95E2F7822B84BB089541110CC021B37C
:1001300081E090E002C0880F991F6A95E2F78095F0
:10014000822381BB089521B381E090E002C0880F33
:10015000991F6A95E2F7822B81BB0895813001F1E6
:1001600030F08230B1F1833009F44CC00895411170
:100170000CC02BB381E090E002C0880F991F6A95F4
:10018000E2F7809582238BBB08952BB381E090E04A
:1001900002C0880F991F6A95E2F7822B8BBB0895E6
:1001A00041110CC028B381E090E002C0880F991F74
:1001B0006A95E2F78095822388BB089528B381E091
:1001C00090E002C0880F991F6A95E2F7822B88BBE6
:1001D000089541110CC025B381E090E002C0880F62
:1001E000991F6A95E2F78095822385BB089525B310
:1001F00081E090E002C0880F991F6A95E2F7822B98
:1002000085BB089541110CC022B381E090E002C08B
:10021000880F991F6A95E2F78095822382BB089523
:1002200022B381E090E002C0880F991F6A95E2F73F
:10023000822B82BB0895813099F028F08230F1F052
:10024000833051F137C029B381E090E002C0880FBC
:10025000991F6A95E2F7822389BB81112CC008950A
:1002600026B381E090E002C0880F991F6A95E2F7FB
:10027000822386BB882309F181E0089523B381E0BE
:1002800090E002C0880F991F6A95E2F7822383BB32
:100290008823A9F081E0089520B381E090E002C0B6
:1002A000880F991F6A95E2F7822380BB882349F063
:1002B00081E00895089581E0089580E0089580E048
:1002C000089580E00895813089F028F08230C9F0E7
:1002D000833011F108952BB381E090E002C0880FC4
:1002E000991F6A95E2F782278BBB089528B381E0B6
:1002F00090E002C0880F991F6A95E2F7822788BBB9
:10030000089525B381E090E002C0880F991F6A9597
:10031000E2F7822785BB089522B381E090E002C016
:10032000880F991F6A95E2F7822782BB0895813072
:1003300089F028F08230C9F0833011F108954130FE
:1003400021F48AB3682B6ABB08958AB36095682349
:100350006ABB0895413021F487B3682B67BB0895C9
:1003600087B36095682367BB0895413021F484B357
:10037000682B64BB089584B36095682364BB0895BB
:10038000413021F481B3682B61BB089581B360953E
:10039000682361BB08958130A1F028F08230F9F024
:1003A000833059F108958BB3609568236BBB8BB391
:1003B00030E002C0220F331F4A95E2F7282B2BBBF7
:1003C000089588B36095682368BB88B330E002C0A5
:1003D000220F331F4A95E2F7282B28BB089585B3D7
:1003E0006095682365BB85B330E002C0220F331FE0
:1003F0004A95E2F7282B25BB089582B360956823C0
:1004000062BB82B330E002C0220F331F4A95E2F78D
:10041000282B22BB0895E199FECF9FBB8EBB6DBBFD
:100420008CB384608CBB8CB382608CBB0895E199E3
:10043000FECF9FBB8EBB8CB381608CBB8DB3089508
:10044000813061F018F0823089F018C060E081E0FE
:100450000E941B018130A1F480E0089564E081E0F6
:100460000E941B01813071F480E0089562E083E016
:100470000E941B01813041F480E0089581E00895DD
:1004800081E0089581E0089581E0089540E060E012
:1004900081E00E94410040E064E081E00E94410070
:1004A00040E062E083E00E944100089541E063E0A3
:1004B00080E00E944100089541E063E081E00E94F5
:1004C000AE0085E08A95F1F7000040E063E081E04E
:1004D0000E94AE008FE39FE10197F1F700C000009A
:1004E0000895CF93C82F282F22952F7044E060EFF6
:1004F00080E00E94CB010E945C022C2F44E060EF60
:1005000080E00E94CB010E945C02CF910895CF93BE
:10051000C82F40E061E081E00E94AE0040E062E070
:1005200081E00E94AE008C2F0E947102CF9108954D
:1005300041E060EF80E00E94970141E061E081E0EE
:100540000E94410041E062E081E00E94410041E000
:1005500063E081E00E9441008FE59AEE0197F1F798
:1005600000C0000083E00E9487028FE19EE40197B3
:10057000F1F700C0000083E00E94870287E991E064
:100580000197F1F700C0000083E00E94870282E03B
:100590000E94870282E00E94870288E20E9487020E
:1005A00081E00E9487020895CF93C82F41E061E067
:1005B00081E00E94AE0040E062E081E00E94AE0077
:1005C0008C2F0E947102CF910895CF93DF93EC019D
:1005D00003C00E94D402219688818111FACFDF9155
:1005E000CF910895882319F0813031F0089580E883
:1005F000860F0E948702089580EC860F0E94870272
:100600000895CF9380E40E948702C0E008C0EC2FD9
:10061000F0E0E05AFF4F80810E94D402CF5FC830E3
:10062000B0F3CF910895813051F018F0823069F025
:10063000089541E062E082E00E94AE00089541E04A
:1006400067E082E00E94AE00089541E063E083E04D
:100650000E94AE000895813051F018F0823069F0A8
:10066000089540E062E082E00E94AE00089540E01C
:1006700067E082E00E94AE00089540E063E083E01E
:100680000E94AE00089541E062E082E00E944100D5
:1006900041E067E082E00E94410041E063E083E0E6
:1006A0000E9441000895813049F018F0823059F0DD
:1006B000089562E082E00E946301089567E082E0AD
:1006C0000E946301089563E083E00E94630108953E
:1006D00041E060EF80E00E94970141E061E081E04D
:1006E0000E94410041E062E081E00E9441000895E3
:1006F0001F920F920FB60F9211242F933F934F9397
:100700005F936F937F938F939F93AF93BF93EF9379
:10071000FF9381E00E945303FF91EF91BF91AF914E
:100720009F918F917F916F915F914F913F912F9109
:100730000F900FBE0F901F901895789485B78E7FFD
:1007400085BF85B7826085BF8BB780648BBF0895F6
:10075000CF93DF93CDB7DEB72A970FB6F894DEBFFD
:100760000FBECDBF0E949D034AE0BE016F5F7F4F69
:100770008AE090E00E9443040E9443030E944602E4
:100780000E9456020E9468030E9498028CE00E9418
:1007900087020E9401036FE080E00E94F20280E085
:1007A0000E94D40260E080E00E94F20288E690E0BD
:1007B0000E94E50280E00E9413032FEF89E698E192
:1007C000215080409040E1F700C0000080E00E948E
:1007D0002B032FEF89E698E1215080409040E1F70C
:1007E00000C0000068E081E00E94F20280E090E03A
:1007F0000E941702082FF82E17E68102112D1124EE
:100800001595159587FD139580E3810F0E94D402FD
:10081000110F812F880F880F180F802F811B805D8B
:100820000E94D40280E00E942002811110C0FF24A7
:10083000F394F00E24E6F21201C0F12C8FEF94E352
:100840002CE0815090402040E1F700C0000081E0A2
:100850000E942002811111C0FA948FEFF81204C097
:100860000F2EF3E6FF2EF02D9FEF24E38CE0915046
:1008700020408040E1F700C000006F2D80E090E054
:100880000E940B0297CFBB274A3031F4992322F400
:10089000BDE2909581959F4F0C944F04BB27FB01BF
:1008A0005527AA27880F991FAA1FA41710F0A41B69
:1008B00083955051B9F7A05DAA3308F0A95DA193C3
:1008C000009779F7B111B1931192CB010C946804A0
:1008D000DC01FC01672F71917723E1F7329704C0A7
:1008E0007C916D9370836291AE17BF07C8F3089532
:0408F000F894FFCFAA
:1008F400041F11111F1F1F1F436F756E74203A20B0
:020904000000F1
:00000001FF
